:1000000014C1000043C1000041C100003FC1000015
:100010003DC100003BC1000039C1000037C10000F4
:1000200035C1000033C1000031C100002FC1000004
:100030002DC100002BC1000029C100000C947B0ED3
:1000400025C100000C946D0821C100001FC10000F3
:100050000C94A80B1BC1000019C100000C945E0B8E
:1000600015C100000C9485120C945C120FC10000A5
:100070000DC100000BC1000009C1000007C1000054
:100080000C94400803C1000001C10000FFC0000043
:10009000FDC00000FBC00000F9C000000C949A08ED
:1000A000F5C00000F3C00000BEC70000EFC00000B4
:1000B000EDC00000EBC00000E9C0000087C70000F1
:1000C000E5C00000E3C00000E1C00000DFC00000A8
:1000D000DDC00000DBC00000D9C00000D7C00000B8
:1000E000D5C00000EA12ED12DC12E012E412241373
:1000F000F112F512FB12FF12031309130D13111362
:10010000241317131B131F130000210024002700C2
:100110002A002D0030003300010100000401070116
:100120000A0100002200250028002B002E003100CB
:10013000340002010000050108010B0100000A0B58
:1001400002090C0D0E080703040100000000000066
:10015000000000000000000000000000000000009F
:10016000000000000000000012111000000000005C
:10017000000000000000000000000000000000007F
:100180000000000020002300260029002C002F0082
:100190003200000100000301060109010505050503
:1001A000070508080808020202020A0A08080404EF
:1001B000040401010101010101010303030303031D
:1001C0000303040707070C0C0C0C0C0C0C0C0202AC
:1001D000020206060606060606060B0B0B0B0B0BA9
:1001E0000B0B010210202008081020401020408036
:1001F00002010201080402010102040810204080EB
:100200008040201008040201800402018040201078
:1002100008040201080402010102040810204080C1
:100220000102040810204080D21911241FBECFEF14
:10023000D1E2DEBFCDBF00E00CBF13E0A0E0B2E032
:10024000EAE6F9E300E00BBF02C007900D92AE3280
:10025000B107D9F728E0AEE2B3E001C01D92A038A3
:10026000B207E1F711E0C5E1D1E000E006C0219757
:100270000109802FFE010E949E1CC431D10780E03D
:100280000807A9F70E94FD160C94B31CB9CE85EDA2
:100290008093BC008091BC0084FDFCCF10921804B8
:1002A000089540917103262F30E0240F311D213233
:1002B0003105DCF4209118042430C9F4FC0180E0FD
:1002C00090E0861758F4309171032191DC01A15B15
:1002D000BC4FA30FB11D2C930196F3CF80917103F6
:1002E000680F6093710380E0089581E0089582E0D3
:1002F00008950895E0919F0380919E03E81730F4DC
:10030000F0E0EE52FC4F808190E008958FEF9FEF78
:10031000089590919F0380919E03981750F4E92FC0
:10032000F0E0EE52FC4F208130E09F5F90939F03FE
:1003300002C02FEF3FEFC901089580919E0390E026
:1003400020919F03821B91090895CF92DF92EF9233
:10035000FF920F931F93CF93DF937C01262F972F4C
:100360008A0180919D03882391F0C62FD72F6E01BB
:10037000C40ED51ECC15DD0569F06991D701ED914C
:10038000FC910190F081E02DC7011995F3CF642F06
:10039000822F87DFC801DF91CF911F910F91FF90CE
:1003A000EF90DF90CF900895CF93DF931F92CDB75A
:1003B000DEB7698320919D032223D1F020919A0317
:1003C000203240F021E030E0FC013383228380E0E2
:1003D00090E014C080919B03E82FF0E0E15DFC4FBA
:1003E000998190838F5F80939B0380939A0304C0CD
:1003F00061E0CE01019655DF81E090E00F90DF9142
:10040000CF910895FC01848583FF0DC084A195A13F
:10041000A6A1B7A1448D558D668D778D841B950B54
:10042000A60BB70B03C080E090E0DC01811520E84B
:100430009207A105B10520F08FEF9FE7A0E0B0E0A3
:1004400008953F924F925F926F927F928F929F9208
:10045000AF92BF92CF92DF92EF92FF920F931F93D2
:10046000CF93DF93CDB7DEB728970FB6F894DEBFF2
:100470000FBECDBF9E838D832A013B0138872F831A
:10048000411551056105710531F4FC0180849184A9
:10049000A284B38402C04A015B0175016401FFEFCD
:1004A000CF1ADF0AEF0AFF0AED81FE81808D918D60
:1004B000A28DB38D8C159D05AE05BF0528F482E095
:1004C000C82ED12CE12CF12C9E012F5F3F4FB7019C
:1004D000A6018D819E810E94501087FD1DC088233A
:1004E00041F089819A81AB81BC81892B8A2B8B2B2E
:1004F00031F0C814D904EA04FB0489F60DC00FEFEB
:100500001FEF2FEF3FE0B701A6018D819E810E9472
:10051000ED0F382E811102C0312C1CC04114510442
:100520006104710459F097018601B301A2018D8124
:100530009E810E94ED0F811107C0EECFED81FE81FB
:10054000C086D186E286F386EF81F885C082D182AB
:10055000E282F382832D28960FB6F894DEBF0FBE99
:10056000CDBFDF91CF911F910F91FF90EF90DF9062
:10057000CF90BF90AF909F908F907F906F905F9043
:100580004F903F900895CF92DF92EF92FF920F939A
:100590001F93CF93DF936C018B017A01EC01CA5654
:1005A000DC4F888187FF04C0FB011182108224C0C8
:1005B0008CE08C9D90018D9D300D11248881A901C6
:1005C000480F511D87FD5A958091F00590E048171E
:1005D000590794F48881A901480F511D87FD5A9548
:1005E000CA01FA01EE0FFF1F8E0F9F1FFC01E05A98
:1005F000FA4F808186FD19C088818F5F88838CE0E7
:100600008C9D90018D9D300D11248881A901480F8A
:10061000511D87FD5A958091F00590E048175907C4
:10062000BCF488818C3044F113C08881280F311DBF
:1006300087FD3A95F901EE0FFF1F2E0F3F1FF901BD
:10064000E05AFA4F808160E08F730E94BB12D4CFD2
:10065000F80180819181049680349C4918F480E4EB
:100660009CE904C0F801808191810496F70191838F
:1006700080838FEF888345C0F80140815181888154
:10068000B901680F711D87FD7A95CB01FB01EE0F53
:10069000FF1F8E0F9F1FFC01E05AFA4F818192814C
:1006A000840F951FF701918380838881A901480FEA
:1006B000511D87FD5A95CA01FA01EE0FFF1F8E0FDB
:1006C0009F1FFC01E05AFA4F808186FF1AC0888183
:1006D000280F311D87FD3A95F901EE0FFF1F2E0FF0
:1006E0003F1FF901E05AFA4F808161E08F73DF917B
:1006F000CF911F910F91FF90EF90DF90CF900C94CE
:10070000BB12DF91CF911F910F91FF90EF90DF907F
:10071000CF900895CF93DF938091C2039091C3034C
:10072000892B39F40E9438139093C3038093C2033A
:1007300020C00E9438139093CB038093CA0320916A
:10074000C2033091C303A901481B590B9A012F5FC3
:100750003F4F2330310528F41092C9031092C8038B
:1007600004C05093C9034093C8031092C30310926E
:10077000C203C091C803D091C903BE010D2E000C65
:10078000880B990B0E94281B2091BE033091BF0358
:100790004091C0035091C1030E94871B6093C40322
:1007A0007093C5038093C6039093C703CD2B21F0AC
:1007B00081E080932E0302C010922E03DF91CF912F
:1007C0000895CF93DF931F92CDB7DEB7BE016F5F61
:1007D0007F4F0C960E94EF14019719F4898190E0E5
:1007E00002C08FEF9FEF0F90DF91CF9108958F920E
:1007F0009F92AF92BF92CF92DF92EF92FF920F93B0
:100800001F93CF93DF931F92CDB7DEB78C01FC010E
:10081000848C958CA68CB78CC08CD18CE28CF38C9C
:10082000BE016F5F7F4F0C960E94EF14019721F479
:100830009981892F90E002C08FEF9FEF8F3FFFEFEC
:100840009F0749F0F801848E958EA68EB78EC08ED4
:10085000D18EE28EF38E0F90DF91CF911F910F9189
:10086000FF90EF90DF90CF90BF90AF909F908F90D0
:100870000895EF92FF921F93CF93DF93FC012081A5
:1008800020FF32C0EC017C01F7E0EF0EF11C4B8140
:100890005C816D817E81E981FA81970180819181FE
:1008A0000E94940F182F811102C010E01EC0888191
:1008B00081FD04C088818E7F888317C0E981FA8119
:1008C00044855585668577858B819C81AD81BE8108
:1008D000480F591F6A1F7B1F9701808191810E94D9
:1008E000940F8111E7CFE1CF11E0812FDF91CF91FC
:1008F0001F91FF90EF900895CF92DF92EF92FF92B9
:100900001F93CF93DF93EC016A017B01122F8B8140
:100910009C81AD81BE8184179507A607B707E9F0D2
:10092000CE01A7DF811103C080E090E01CC012FF60
:1009300006C01882CB82DC82ED82FE820EC0E98185
:10094000FA819E01295F3F4FB701A6018081918105
:100950000E94C10F8111EDCFE7CF13708881182B52
:100960001883CE010796DF91CF911F91FF90EF90F2
:10097000DF90CF900895CF93DF93EC018A8187FFBA
:1009800039C04C895D896E897F898E819F8121E084
:100990008096B2DF009729F489818160898380E0A5
:1009A0002FC0EC81FD81EF70FF2725E0EE0FFF1FC8
:1009B0002A95E1F7DC01AE0FBF1F2C91253E61F3B4
:1009C000288123FF0AC0488D598D6A8D7B8D5C96E6
:1009D0004D935D936D937C935F974C8D5D8D6E8D84
:1009E0007F8DE80FF91F538F428F758B648B8A813F
:1009F0008F778A838E819F8180963BDF882361F287
:100A0000DF91CF910895FC012485222311F00C96EB
:100A1000B2CF08952F923F924F925F926F927F9242
:100A20008F929F92AF92BF92CF92DF92EF92FF92FE
:100A30000F931F93CF93DF93CDB7DEB72A970FB6EF
:100A4000F894DEBF0FBECDBF9E838D831B015A83FA
:100A50004983DC01BC91BB83B3FF67C0FC01828189
:100A600081FF63C06DC0AD81BE811696ED91FC9192
:100A70001797848190E009968A019B010150110922
:100A800021093109082E04C0369527951795079539
:100A90000A94D2F775016401B1E0CB1AD108E108DC
:100AA000F10804C0F694E794D794C7948A95D2F7D6
:100AB000C016D106E206F30608F069C02B8126FDB8
:100AC00002C0ED81FE81848D958DA68DB78DED815F
:100AD000FE8184879587A687B7870D811E81045F75
:100AE0001F4FC114D104E104F10409F45AC0AD81CF
:100AF000BE811C964D915D916D917C911F979801DF
:100B000016968D919C9117970E945010B1E0CB1AC8
:100B1000D108E108F108181624F3AD81BE811C96B6
:100B20004D925D926D927C921F97AD81BE81119620
:100B30008C911197816011968C938FEF9FEF05C276
:100B400082FF35C0AD81BE8158968D909D90AD904D
:100B5000BC905B971C964D905D906D907C901F971C
:100B600050964D915D916D917C91539784169506A9
:100B7000A606B706E1F081149104A104B10409F0BE
:100B800072CFFD0114861586168617860AC0452B7E
:100B9000462B472B09F492CFC01AD10AE20AF30A76
:100BA0009CCFED81FE81808A918AA28AB38AE981F5
:100BB000FA81AF0160E070E0ED81FE81808991896A
:100BC000A289B38980959095A095B09584179507D3
:100BD000A607B70708F4A9CFC980DA803C96FC8342
:100BE000EB8344244A94542C3201AD81BE8150964B
:100BF0004D915D916D917C915397C114D10409F48D
:100C000077C1AD81BE8116968D919C9117978A010F
:100C10009B0169E036952795179507956A95D1F759
:100C2000DC011396EC911E2F10237A01B1E0FB2218
:100C300011115AC0E114F10409F056C0ED81FE8192
:100C40004485558566857785411551056105710592
:100C500009F12B813C810E94501087FD66CF8111E4
:100C600043C0AD81BE8112968C9112978068129616
:100C70008C9312971C964D915D916D917C911F976D
:100C80002B813C8116968D919C911797DADB81110F
:100C90002BC04BCFED81FE81448D558D668D778DB8
:100CA0004115510561057105B9F42281206822833F
:100CB0002B813C8140E050E0BA01C3DB882309F47A
:100CC00034CFED81FE8184859585A685B785848F97
:100CD000958FA68FB78F08C0AD81BE811C964D93AE
:100CE0005D936D937C931F97AD81BE811696ED91B8
:100CF000FC9117971C964D915D916D917C911F977A
:100D00004250510961097109048004C0440F551F04
:100D1000661F771F0A94D2F780899189A289B389C7
:100D2000480F591F6A1F7B1F410F511D611D711D07
:100D3000E114F10429F4C114B2E0DB0608F03EC06E
:100D400080E092E08E199F0986018C159D0508F4BC
:100D50008C01E114F104A9F4AD81BE8150968D900F
:100D60009D90AD90BC90539758968D919D910D900C
:100D7000BC91A02D88169906AA06BB0610F025E0A6
:100D800001C021E0CF018096B7DD009709F4CDCEF8
:100D9000A801B1018E0D9F1D0E94AA1CE00EF11E3C
:100DA000E114B2E0FB0609F090C0ED81FE8186817E
:100DB000978180965EDD811188C0B7CE83A194A112
:100DC000A5A1B6A1C11424E0D20608F464C0228112
:100DD000211B0D2D0695201708F4022F8417950767
:100DE000A607B70750F0800F911DA11DB11D481730
:100DF00059076A077B0708F4A2C0AD81BE81169629
:100E0000ED91FC911797E080F180F70185818330A7
:100E100039F099E0440F551F661F771F9A95D1F757
:100E20009A01AB0169E1C7010E94410F811105C020
:100E30004101A12CB12C10E00FC083E3D7018C93AA
:100E400015C0A4016CEFC701EBD7882379F0FFEF41
:100E5000AF1ABF0A2EEF921AA016B10650F40E94E4
:100E6000DA148111EECF89E5F7018083C701C5D778
:100E70000FC00E94DA14882341F0102F0027110FB1
:100E80008DEFAFD7C701B9D720C085E5D7018C93C7
:100E9000C701B3D74ACE84179507A607B70729F429
:100EA00010A243A254A265A276A2AD81BE8116967D
:100EB000ED91FC9117979101808191810E94940F8F
:100EC000882309F432CE00E012E0ED81FE818089B2
:100ED0009189A289B389800F911FA11DB11D808BBB
:100EE000918BA28BB38B200E311EC01AD10A7DCEFE
:100EF00058968D919D910D90BC91A02D84179507CA
:100F0000A607B70748F4ED81FE81408F518F628FAD
:100F1000738F828180688283AD81BE8112968C91AD
:100F200083FD03C089819A8110C0ED81FE8180819B
:100F30008823C1F3CF011FDD8111F4CFF6CD10A2BC
:100F400043A254A265A276A258CF2A960FB6F8946F
:100F5000DEBF0FBECDBFDF91CF911F910F91FF90EC
:100F6000EF90DF90CF90BF90AF909F908F907F9049
:100F70006F905F904F903F902F9008950C964ACDC0
:100F8000CF93DF931F92CDB7DEB7698341E050E086
:100F9000BE016F5F7F4F0C963DDD0F90DF91CF91CB
:100FA00008956115710579F0FB0101900020E9F7C2
:100FB0003197AF01461B570BDC01ED91FC9102808C
:100FC000F381E02D199480E090E008951F920F9234
:100FD0000FB60F9211240BB60F922F933F934F939E
:100FE0005F936F937F938F939F93AF93BF93EF9391
:100FF000FF9348E251E064E271E080E090E0C3DA00
:10100000FF91EF91BF91AF919F918F917F916F91E0
:101010005F914F913F912F910F900BBE0F900FBE9C
:101020000F901F9018951F920F920FB60F921124D8
:101030000BB60F922F933F934F935F936F937F93D2
:101040008F939F93AF93BF93EF93FF9348EA50E042
:1010500064EA70E083E090E096DAFF91EF91BF914F
:10106000AF919F918F917F916F915F914F913F9140
:101070002F910F900BBE0F900FBE0F901F901895E1
:101080001F920F920FB60F9211240BB60F922F934F
:101090003F934F935F936F937F938F939F93AF9300
:1010A000BF93EF93FF9348E950E064E970E082E07A
:1010B00090E069DAFF91EF91BF91AF919F918F918D
:1010C0007F916F915F914F913F912F910F900BBE48
:1010D0000F900FBE0F901F9018951F920F920FB692
:1010E0000F9211240BB60F922F933F934F935F9360
:1010F0006F937F938F939F93AF93BF93EF93FF93E0
:1011000048E850E064E870E081E090E03CDAFF916C
:10111000EF91BF91AF919F918F917F916F915F916F
:101120004F913F912F910F900BBE0F900FBE0F90DC
:101130001F9018951F920F920FB60F9211240BB6A5
:101140000F922F933F934F935F936F937F938F9360
:101150009F93AF93BF93EF93FF938091B900887FE4
:10116000803609F49CC068F5883209F45BC090F4BD
:10117000803109F454C038F4882309F4F6C088306B
:1011800009F44DC0F6C0883109F44CC0803209F42E
:101190005DC0EFC0803409F468C048F4803309F4BE
:1011A00055C0883309F0E5C080931604D8C0803557
:1011B00009F44FC0883509F45DC0883409F0D9C0FE
:1011C000D6C0883909F4C7C0A8F4883709F467C0C5
:1011D00038F4883609F463C0803709F460C0C9C0A8
:1011E000883809F4B8C0803909F45FC0803809F044
:1011F000C0C05BC0803B09F486C038F4803A09F473
:1012000066C0883A09F47FC0B4C0803C09F4A7C026
:10121000883C09F4A4C0883B09F48AC0AAC0809124
:10122000130410C09091150480911404981770F560
:10123000E091150481E08E0F80931504F0E0EE50EC
:10124000FC4F80818093BB0085EC86C080931604A0
:101250008EC0E091150481E08E0F8093150480917B
:10126000BB00F0E0EE50FC4F80839091150480911C
:1012700014046EC0E091150481E08E0F8093150474
:101280008091BB00F0E0EE50FC4F8083809117040A
:1012900081116DC081E08093120484EA61C083E013
:1012A0008093180410929503CFCF809195038032DC
:1012B00008F051C0E091950381E08E0F8093950373
:1012C0008091BB00F0E0EB58FC4F8083BDCF85ECF4
:1012D0008093BC001092180480919503803230F402
:1012E000E0919503F0E0EB58FC4F1082609195037C
:1012F00070E0E0917303F091740385E793E0199532
:101300001092950336C084E0809318041092720303
:1013100010927103E0916F03F09170031995809121
:101320007103811105C081E08093710310924F0316
:10133000E091720381E08E0F80937203F0E0E15B35
:10134000FC4F80818093BB00909172038091710368
:10135000981708F479CF85E88093BC000AC085EC23
:101360008093BC001092180404C0109216040E94CE
:101370004701FF91EF91BF91AF919F918F917F9125
:101380006F915F914F913F912F910F900BBE0F90F6
:101390000FBE0F901F90189520919A0390919C0377
:1013A000213208F049C0809118048111FCCF32E04D
:1013B00030931804609317043FEF30931604109293
:1013C000150420931404AFE2B3E042EF53E0FA01B6
:1013D0003E2F341B321718F43D913193F9CF109200
:1013E000130420911304990F922B9093130490915E
:1013F0001204913061F410921204909113049093AE
:10140000BB009091BC0093FDF8CF95EC01C095EE28
:101410009093BC00909118049230E1F390911604DF
:101420009F3F79F080911604803241F0809116043C
:10143000803331F084E005C081E003C082E001C068
:1014400083E010929B0310929A0310929D030895DB
:10145000813061F028F0823079F0833099F008957E
:10146000662311F02F9A08952F980895662311F09E
:101470002E9A08952E980895662311F02D9A0895B6
:101480002D980895662311F02C9A08952C980895AC
:101490000F931F93CF93DF93EC01862F8A0141E0D6
:1014A00061E00E949D1610929F0380939E038A81A3
:1014B0009B81DC01ED91FC910480F581E02D199573
:1014C000892B69F08A819B81DC01ED91FC9106807A
:1014D000F781E02D1995F801808381E001C080E05B
:1014E000DF91CF911F910F910895AF92BF92CF924C
:1014F000DF92EF92FF920F931F93CF93DF931F9290
:10150000CDB7DEB76C01862FB42EE22EF12C622F00
:10151000213208F060E241E059830E949D1610924A
:101520009F0380939E030B2D5981152FA12CB12C65
:10153000D60112968D919C911397DC01ED91FC914F
:101540000480F581E02D1995892B31F481E0AE14EA
:10155000BF04C1F080E016C0AE14BF04BCF7D601D2
:1015600012968D919C911397DC01ED91FC91068070
:10157000F781E02D1995F80181938F01FFEFAF1AE4
:10158000BF0AD6CF0F90DF91CF911F910F91FF909F
:10159000EF90DF90CF90BF90AF9008950F931F937F
:1015A000CF93DF93EC01862FBA0191E090939D03D6
:1015B00080939C0310929B0310929A038A819B81D3
:1015C000DC01ED91FC91422F50E00280F381E02D8F
:1015D00019958C0161E08A819B81DEDE81E0012B1F
:1015E00009F480E0DF91CF911F910F910895EF9260
:1015F000FF920F931F93CF93DF931F92CDB7DEB768
:101600007C0181E080939D0360939C0310929B0377
:1016100010929A03D70112968D919C911397DC0139
:10162000ED91FC910190F081E02D642F29831995B3
:101630008C0161E02981211160E0F70182819381B1
:10164000ABDE81E0012B09F480E00F90DF91CF91B8
:101650001F910F91FF90EF9008953FB7F8948091FC
:10166000A5039091A603A091A703B091A80326B566
:10167000A89B05C02F3F19F00196A11DB11D3FBFCA
:10168000BA2FA92F982F8827820F911DA11DB11D58
:10169000BC01CD0142E0660F771F881F991F4A9554
:1016A000D1F708952FB7F8946091A1037091A20328
:1016B0008091A3039091A4032FBF08951F920F92CE
:1016C0000FB60F9211242F933F938F939F93AF9355
:1016D000BF938091A1039091A203A091A303B09125
:1016E000A4033091A00323E0230F2D3720F40196AB
:1016F000A11DB11D05C026E8230F0296A11DB11D35
:101700002093A0038093A1039093A203A093A3032B
:10171000B093A4038091A5039091A603A091A70381
:10172000B091A8030196A11DB11D8093A5039093CC
:10173000A603A093A703B093A803BF91AF919F9175
:101740008F913F912F910F900FBE0F901F90189582
:101750001F920F920FB60F9211240BB60F922F9378
:101760003F934F935F936F937F938F939F93AF9329
:10177000BF93EF93FF93E091BC03F091BD031995E4
:10178000FF91EF91BF91AF919F918F917F916F9159
:101790005F914F913F912F910F900BBE0F900FBE15
:1017A0000F901F901895A59888E090910201906283
:1017B00090930201909102019061909302019091A7
:1017C00002019F7E90930201815079F788E0909109
:1017D00002019062909302019091020190619093B6
:1017E0000201909102019F7E90930201815079F74E
:1017F000A59A08958F929F92BF92CF92DF92EF9217
:10180000FF920F931F93CF93DF9380910402815037
:1018100019F08093040298C084E080930402409100
:101820004205411104C0809146058823B9F080919A
:1018300044058F5F8093440590914305992339F0C7
:10184000823460F0109243051092440509C085313E
:1018500038F081E0809343051092440511E001C007
:1018600010E080914105282F30E050E0082E02C0A2
:10187000559547950A94E2F740FF04C0111102C044
:101880006FEF04C0F901E050FE4F60818CDF809162
:1018900041058F5F843018F48093410502C0109297
:1018A00041058091450590914605092F0823212F78
:1018B0002195022390958923082B809147050817CD
:1018C00009F442C0C0E0D0E08C2F209147052027CA
:1018D00030E00C2E02C0359527950A94E2F720FFE0
:1018E0002DC02091460530E00C2E02C0359527957D
:1018F0000A94E2F720FF13C0112379F060914505A7
:1019000070E00C2E02C0759567950A94E2F761703D
:101910007727A1E06A27617010C061E00EC0609176
:10192000450570E00C2E02C0759567950A94E2F7A4
:1019300061707727B1E06B278C2F8ADD2196C43048
:10194000D10511F6009347058091330581112AC016
:101950008091350590913605892B21F180913905CB
:1019600090913A05892B51F480913405813009F426
:101970003EC108F42AC1823009F458C1809139056A
:1019800090913A05892B49F08091390590913A055B
:10199000019790933A058093390580913405811120
:1019A0006BC1759880912005909121058233910536
:1019B00050F401969093210580932005809148056D
:1019C00081116DC0CAC0109221051092200599EBBB
:1019D000C92E93E0D92E26EBE22E23E0F22E01E170
:1019E00015E0C1E0D0E0D601ED916D01F0E0EE0F21
:1019F000FF1FEE57FE4FA591B4918C91F701919185
:101A00007F018923BB24B3948111B12CCE018F5E59
:101A10009A4F4C01DC0150968C918B15C9F0BB207C
:101A200021F08C2F0E94E11611C0F801848995895C
:101A3000459718F08C2F806C02C08C2F80640E9418
:101A4000E116D80155961C921E925497F401B08A63
:101A5000BB20E9F0D80154968D919C915597853122
:101A6000910540F083709927892B21F48C2F806891
:101A70000E94E116F801848995898F3FFFEF9F0747
:101A800031F00196D80155969C938E9354972196E8
:101A90000E5F1F4FC430D10509F0A5CF8FCF8091C5
:101AA0004A0581115AC0E2E8F1E0A591B4918C9108
:101AB00080915505882309F4E1C08091500581117A
:101AC000DDC08091560590915705A0915805B091C1
:101AD00059050196A11DB11D809356059093570598
:101AE000A0935805B093590520914E0530914F05AC
:101AF00080914B0590914C052817390708F0D8C004
:101B000080914E0590914F05909352058093510519
:101B100010924F0510924E0580914905811118C011
:101B200080915105909152059093540580935305EF
:101B30008091560590915705A0915805B09159058F
:101B400080935A0590935B05A0935C05B0935D0567
:101B50008091550581111092550580912B0590912A
:101B60002C05A0912D05B0912E05892B8A2B8B2B4E
:101B700029F080911605882309F49DC080911505F0
:101B8000811110C080912B0590912C05A0912D05FD
:101B9000B0912E0580932F0590933005A0933105C9
:101BA000B0933205E0911105F0911205309709F4D8
:101BB00096C0DF91CF911F910F91FF90EF90DF9032
:101BC000CF90BF909F908F901994809137059091FE
:101BD0003805892B61F080913705909138059093F5
:101BE0003A058093390581E080933405C7CE809112
:101BF0003C05815080933C0580913C05811131C0AA
:101C000080913B0580933C0580913F059091400574
:101C100090933A058093390582E080933405809152
:101C20003F0590914005892B09F0A8CE80913D0594
:101C300090913E05892BA9F080913D0590913E053C
:101C4000019790933E0580933D0580913D059091CD
:101C50003E05892B31F41092360510923505759AA0
:101C60008DCE809135059091360590933A058093FD
:101C700039051092340582CE759A94CE20914E0586
:101C800030914F0580914B0590914C0528173907ED
:101C900050F480914E0590914F05019690934F0519
:101CA00080934E0539CF109252051092510534CFD2
:101CB00080E090E029CF80912B0590912C05A09198
:101CC0002D05B0912E050197A109B10980932B052F
:101CD00090932C05A0932D05B0932E054FCFDF9147
:101CE000CF911F910F91FF90EF90DF90CF90BF9019
:101CF0009F908F9008951F920F920FB60F9211240C
:101D00000BB60F922F933F934F935F936F937F93F5
:101D10008F939F93AF93BF93EF93FF938091AF0304
:101D20009091B0038093B2008091B2039091B3037D
:101D3000A091B403B091B5030196A11DB11D80938C
:101D4000B2039093B303A093B403B093B50380910F
:101D5000B2039091B303A091B403B091B503409145
:101D6000AB035091AC036091AD037091AE03841747
:101D70009507A607B70710F18091B10381111EC026
:101D800081E08093B1038091B2039091B303A0915D
:101D9000B403B091B503841B950BA60BB70B8093CE
:101DA000B2039093B303A093B403B093B503E0914F
:101DB000A903F091AA0319951092B103FF91EF9135
:101DC000BF91AF919F918F917F916F915F914F9153
:101DD0003F912F910F900BBE0F900FBE0F901F9051
:101DE00018958EBD0DB407FEFDCF08958FEF8EBD03
:101DF0000DB407FEFDCF8EB50895CF93DF93FC01A0
:101E00002381222351F0EC010180F281E02D61E079
:101E10008281B1D38FEFE5DF1B82DF91CF910895EF
:101E20000F931F93CF93DF938C01862FEA01D9DFA5
:101E300088818EBD8981FE013296DE5F0DB407FE7A
:101E4000FDCF8EBDEC17FD0711F08191F7CF0DB4DA
:101E500007FEFDCF8FEFC5DF8FEFC3DFC7DFF801D0
:101E60008483982F9F71953031F086E58083C80177
:101E7000C4DF80E001C081E0DF91CF911F910F911D
:101E80000895FF920F931F93CF93DF9300D01F927B
:101E9000CDB7DEB78C01F62E29833A834B835C8362
:101EA000DC0113968C911397811112C01196ED915C
:101EB000FC911297908181819CBD8DBD1196ED9111
:101EC000FC91129760E0828156D381E0F801838310
:101ED00071D58F2D806485DF8C8183DF8B8181DFDD
:101EE0008A817FDF89817DDFFF2011F087E801C0D3
:101EF00085E977DFFCE0FF1201C078DFF12C76DFA7
:101F0000D80114968C9387FF05C0BFEFFB1611F024
:101F1000F394F5CF0F900F900F900F90DF91CF912A
:101F20001F910F91FF9008950F931F93CF93DF930D
:101F3000EC0189018D81833039F089E0440F551F10
:101F4000661F771F8A95D1F79A01AB0168E1CE0130
:101F500098DF882319F082E388830AC0A8016EEF16
:101F6000CE015EDF182F882319F0CE0146DF03C0B3
:101F7000CE0143DF10E0812FDF91CF911F910F91B0
:101F800008950F931F93CF93DF93EC0189018D8107
:101F9000833039F089E0440F551F661F771F8A95FB
:101FA000D1F79A01AB0161E1CE016BDF882319F013
:101FB00080E3888309C0B801CE01BCD4182F8823E0
:101FC00019F0CE011ADF03C0CE0117DF10E0812F18
:101FD000DF91CF911F910F9108958F929F92AF92B1
:101FE000BF92CF92DF92EF92FF920F931F936A01FD
:101FF0007B0148015901FC012581203251F54489BA
:1020000055896689778997018601E7E03695279596
:1020100017950795EA95D1F7400F511F621F731F5F
:1020200023E080960E947C04009711F480E02DC08C
:10203000E894C7F8DD24EE24FF24CC0CDD1CCC0C86
:10204000DD1CFC01EC0DFD1D80829182A282B38219
:102050001BC0203159F7FC0144895589668977896D
:102060004D0D511D611D711D23E080960E947C0461
:102070000097E1F2DD24EE24FF24CC0CDD1CFC01F2
:10208000EC0DFD1D9182808281E01F910F91FF90E8
:10209000EF90DF90CF90BF90AF909F908F9008957A
:1020A000CF92DF92EF92FF920F931F93CF93DF9324
:1020B000EC016A017B0189018D81803251F58C89A7
:1020C0009D89AE89BF89E7E07695679557954795D5
:1020D000EA95D1F7480F591F6A1F7B1F22E0CE01F6
:1020E00080960E947C04009711F48FEF40C0E89422
:1020F000C7F8DD24EE24FF24CC0CDD1CCC0CDD1C49
:10210000FC01EC0DFD1D80819181A281B381BF7026
:102110001DC0803151F74C895D896E897F894D0DD5
:10212000511D611D711D22E0CE0180960E947C042C
:102130000097D9F2DD24EE24FF24CC0CDD1CFC0139
:10214000EC0DFD1D80819181A0E0B0E0488D598D9E
:102150006A8D7B8D481759076A077B0738F0F801AD
:1021600080839183A283B38381E001C080E0DF910B
:10217000CF911F910F91FF90EF90DF90CF90089536
:10218000CF92DF92EF92FF920F931F93CF93DF9343
:102190006C017A018B01C0E0D0E0CE15DF0589F03B
:1021A000D8016D918D01D601ED91FC910190F081E6
:1021B000E02DC6011995892B11F47E0102C02196EC
:1021C000ECCFC701DF91CF911F910F91FF90EF905E
:1021D000DF90CF900895FC01228D218F0895FC019E
:1021E000918D828D981761F0828DDF01A80FB11D4E
:1021F0005D968C91928D9F5F9F73928F90E0089572
:102200008FEF9FEF0895FC01918D828D981731F02B
:10221000828DE80FF11D858D90E008958FEF9FEF7F
:102220000895FC01918D228D892F90E0805C9F4F55
:10223000821B91098F73992708958CE294E0F1DF56
:1022400021E0892B09F420E0822F0895FC01848D80
:10225000DF01A80FB11DA35ABF4F2C91848D90E0D0
:1022600001968F739927848FA689B7892C93A089AB
:10227000B1898C9180648C93938D848D981306C062
:102280000288F389E02D80818F7D80830895EF920D
:10229000FF920F931F93CF93DF93EC0181E0888F20
:1022A0009B8D8C8D981305C0E889F989808185FD07
:1022B00023C0F62E0B8D10E00F5F1F4F0F731127F9
:1022C000E02E8C8DE8120BC00FB607FCFACFE88920
:1022D000F989808185FFF5CFCE01B8DFF2CF8B8DF4
:1022E000FE01E80FF11DE35AFF4FF0820B8FEA89E0
:1022F000FB898081806207C0EE89FF896083E8895D
:10230000F98980818064808381E090E0DF91CF91C2
:102310001F910F91FF90EF900895CF93DF93EC0101
:10232000888D8823C1F0EA89FB89808185FD05C0FD
:10233000A889B9898C9186FD0EC00FB607FCF5CF30
:10234000808185FFF2CFA889B9898C9185FFEDCF77
:10235000CE017CDFE8CFDF91CF91089580E090E05F
:10236000892B19F06ADF811125C080E090E0892B6C
:1023700041F080E090E0892B21F00E940000811163
:102380001CC080E090E0892B41F080E090E0892B38
:1023900021F00E940000811113C080E090E0892BA1
:1023A000A1F080E090E0892B81F00E940000811173
:1023B0000AC008950E940000D8CF0E940000E1CF1B
:1023C0000E940000EACF0C9400000895CF93DF93A1
:1023D00090E0FC01EE51FE4F2491FC01E456FE4FCB
:1023E0008491882361F190E0880F991FFC01E85FD8
:1023F000FE4FC591D491FC01EE5DFE4FA591B491C5
:10240000611109C09FB7F894888120958223888341
:10241000EC912E230BC0623061F49FB7F8943881A1
:10242000822F809583238883EC912E2B2C939FBF42
:1024300006C08FB7F894E8812E2B28838FBFDF91D9
:10244000CF9108950E94A61C8F929F92AF92BF9247
:10245000CF92DF92EF92FF926B017C01FED84B018D
:102460005C01C114D104E104F104E9F0F6D8DC0107
:10247000CB0188199909AA09BB09883E9340A10597
:10248000B10578F321E0C21AD108E108F10888EE1D
:10249000880E83E0981EA11CB11CC114D104E10474
:1024A000F10421F7DECFFF90EF90DF90CF90BF9047
:1024B000AF909F908F9008951F920F920FB60F923A
:1024C00011240BB60F922F933F934F935F936F930B
:1024D0007F938F939F93AF93BF93EF93FF938CE280
:1024E00094E0B4DEFF91EF91BF91AF919F918F91F6
:1024F0007F916F915F914F913F912F910F900BBE04
:102500000F900FBE0F901F9018951F920F920FB64D
:102510000F9211240BB60F922F938F939F93EF93EB
:10252000FF93E0913C04F0913D048081E0914204EE
:10253000F091430482FD12C09081809145048F5F29
:102540008F7320914604821751F0E0914504F0E02A
:10255000E45DFB4F958F8093450401C08081FF911E
:10256000EF919F918F912F910F900BBE0F900FBE07
:102570000F901F901895362F90E0FC01E45CFE4F01
:102580004491FC01EE51FE4F2491FC01E456FE4FB4
:102590009491992309F46BC0442309F455C050E089
:1025A000FA013197E231F10508F04EC08827EE5864
:1025B000FF4F8F4F0C949E1C809180008F7707C037
:1025C000809180008F7D03C080918000877F809301
:1025D00080003AC084B58F7702C084B58F7D84BDFA
:1025E00033C08091B0008F7703C08091B0008F7DA1
:1025F0008093B00029C0809190008F7707C08091B0
:1026000090008F7D03C080919000877F8093900021
:102610001BC08091A0008F7707C08091A0008F7DA4
:1026200003C08091A000877F8093A0000DC080919F
:1026300020018F7707C0809120018F7D03C080919A
:102640002001877F80932001E92FF0E0EE0FFF1F2C
:10265000EE5DFE4FA591B4918FB7F894EC913111D6
:1026600003C020952E2301C02E2B2C938FBF0895DD
:102670006F927F928F929F92AF92BF92CF92DF9292
:10268000EF92FF920F931F93CF93DF93E8EEF1E069
:102690001491E2EAF1E0C491F89460E085E06BDF28
:1026A00083E090E00197F1F761E085E064DF83E289
:1026B00090E00197F1F760E085E05DDF78948C2F82
:1026C00090E0880F991FEC01CE57DE4FFE01A591D7
:1026D000B4918C9181238117C9F3FE01A591B49126
:1026E0008C9181238113F9CF0E942D0B6B017C010A
:1026F000FE01A591B4918C9181238117C9F3C091FA
:102700002B040E942D0B9B01AC012C193D094E0995
:102710005F09ADE8B0E00E94791CAB01BC018DE01F
:1027200076956795579547958A95D1F7CA01EC2F0D
:10273000F0E0EE0FFF1FE75EFB4F518340832091D7
:102740005E05222309F4E7C081E08C0FE0902104AC
:10275000F090220400911F0410912004F0911D04B8
:10276000E0911E0460901B0470901C04C09019043A
:10277000D0901A042130D1F5853018F480932B04C1
:1027800002C010922B04B701B02FA12F4F2F5E2F44
:102790009301F6014615570514F49A01A3012C156F
:1027A0003D0514F4F9019601E016F1061CF4BE2D66
:1027B000AF2DB801421753072CF4922F832F9A01A3
:1027C000492F582F8B2F9A2F8E179F070CF4CF016C
:1027D000621773070CF49B01821793070CF4C9016D
:1027E000481759070CF097C0CA0195C0893018F4F2
:1027F00080932B0402C010922B04C0912904D09125
:102800002A04609127047091280440912504509176
:102810002604809123049091240497015801AF2F3E
:10282000BE2FF3014601A615B70514F4FD01D3012F
:102830008E159F0514F49C01C701C617D7071CF419
:102840007B01BE01E701EC15FD0514F44F01F60113
:102850002017310714F459019801641775071CF407
:102860008A01AB01B801AE17BF071CF48F01FD014F
:10287000D801821793071CF489019C01C801C6176F
:10288000D7071CF48B01BE01E8014A155B051CF457
:1028900085015A01A801621773071CF489019B0185
:1028A000B801A817B9070CF4CD01A814B9040CF4A9
:1028B00054012E173F072CF4BE2FAF2FF9012B2FF9
:1028C0003A2FDC01C817D9070CF4DE014A155B0565
:1028D0002CF49A2D8B2D5A01492F582F621773070C
:1028E0000CF49B01AE16BF060CF45F014A175B07A0
:1028F0002CF49A2F8B2FDA01492F582FC501AA16D5
:10290000BB060CF4CD01421753070CF49A01821751
:1029100093070CF4C901DF91CF911F910F91FF90A4
:10292000EF90DF90CF90BF90AF909F908F907F906F
:102930006F900895EF92FF920F931F93CF93DF93C1
:10294000EC017B010E94520B8B0150DA8C838F3F8C
:1029500049F40E94520B601B710B6D327140A8F359
:1029600084E503C08E3F31F080E58883CE0145DAEF
:1029700080E019C08FEF8EBDF701D701A150BE4F87
:102980009FEF0DB407FEFDCF8EB59EBD8193EA1774
:10299000FB07B9F70DB407FEFDCF8EB58C931C82F3
:1029A00025DA24DA81E0DF91CF911F910F91FF901A
:1029B000EF900895CF93DF930E94520BEB0116DA4C
:1029C0008F3F49F00E94520B6C1B7D0B69357240A2
:1029D000B0F380E001C081E0DF91CF9108958F9244
:1029E0009F92AF92BF92DF92EF92FF920F931F934D
:1029F000CF93DF93EC017B019881992309F441C0C7
:102A00008A8180FF3EC093FF47C0488D598D6A8DF3
:102A10007B8D088919892A893B89401B510B620BE0
:102A2000730B423051056105710588F14889598958
:102A30006A897B898A01117095FD47C0EE81FF810B
:102A4000D3804A015B0189E0B694A7949794879458
:102A50008A95D1F7D8200115110509F063C0D1106E
:102A600061C0452B462B472B09F441C04C855D8541
:102A70006E857F859E01245F3F4FCF0111DB87FF6D
:102A800046C08981826089838FEF9FEF89C0452B83
:102A9000462B472B59F610C095FFC8CFEE81FF811A
:102AA0008681978125E0880F991F2A95E1F728896B
:102AB00039898217930719F480E090E06DC0488946
:102AC00059896A897B898A01117099E076956795A1
:102AD000579547959A95D1F7EE81FF81848D958D15
:102AE000A68DB78D480F591F6A1F7B1F39C096FFEF
:102AF00005C0848D958DA68DB78D04C08C8D9D8D60
:102B0000AE8DBF8D8C879D87AE87BF870BC081112F
:102B100009C08881807709F4B4CF81E090E021E09A
:102B200030E03CC0EE81FF814C855D856E857F8500
:102B30004250510961097109048004C0440F551FB6
:102B4000661F771F0A94D2F780899189A289B38979
:102B5000480F591F6A1F7B1F4D0D511D611D711DAF
:102B60008E819F8120E080960E947C04009709F46A
:102B700088CFFC01E00FF11F8081F70180838889F5
:102B80009989AA89BB890196A11DB11D888B998B52
:102B9000AA8BBB8B81E090E020E030E0821B930B9E
:102BA000DF91CF911F910F91FF90EF90DF90BF9039
:102BB000AF909F908F900895CF93DF93BC018CE2EC
:102BC00094E00E94D107EC0162E572E08CE294E0AF
:102BD0000E94D1078C0F9D1FDF91CF9108958F9296
:102BE0009F92AF92BF92CF92DF92EF92FF920F939C
:102BF0001F93CF93DF93CDB7DEB7A1970FB6F894AD
:102C0000DEBF0FBECDBF6C01990FEE08FF08F7FEC7
:102C100032C0E0912C04F0912D040190F081E02D60
:102C20006DE28CE294E019958C0122273327A901EB
:102C30002C193D094E095F0919A2CE0181967C012C
:102C40009AE0892E912CA12CB12CCA01B901A501C1
:102C5000940111D6605DF70162937F012115310562
:102C60004105510591F7BF018CE294E00E94D10724
:102C7000080F191F1FC0A701960119A28E010F5D31
:102C80001F4F8AE0C82ED12CE12CF12CCA01B901CA
:102C9000A7019601F0D5605DF80162938F012115BF
:102CA00031054105510591F7BF018CE294E00E9486
:102CB000D1078C0162E572E08CE294E00E94D107BA
:102CC000800F911FA1960FB6F894DEBF0FBECDBF47
:102CD000DF91CF911F910F91FF90EF90DF90CF90F8
:102CE000BF90AF909F908F900895ECE2F4E0A089A0
:102CF000B18982E08C93A485B5851C92A685B785A1
:102D00008FEC8C93108EA489B58986E08C93A28970
:102D1000B3898C9180618C93A289B3898C918860EE
:102D20008C93A289B3898C9180688C930288F389F3
:102D3000E02D80818F7D80830895909118049111FA
:102D4000FCCF91E090931804409317042FEF209349
:102D5000160410921504260F209314049093130464
:102D600090911304880F892B80931304809112048F
:102D7000813061F410921204809113048093BB009F
:102D80008091BC0083FDF8CF85EC01C085EE809377
:102D9000BC00809118048130E1F3809115048617FE
:102DA00010F460911504A2EFB3E022ED33E0F901D5
:102DB0008E2F821B861718F48D918193F9CF862F61
:102DC000089590911D05963009F0B0F4E0911E052C
:102DD000F0E0EF5EFA4F868380911D058F5F809350
:102DE0001D0580911E058F5F80931E0580911E0535
:102DF000863010F010921E050895789484B5826094
:102E000084BD84B5816084BD85B5826085BD85B58E
:102E1000816085BD80916E00816080936E0010920C
:102E20008100809181008260809381008091810087
:102E30008160809381008091800081608093800018
:102E40008091B10084608093B1008091B000816076
:102E50008093B00080919100826080939100809176
:102E600091008160809391008091900081608093B7
:102E700090008091A10082608093A1008091A100C8
:102E800081608093A1008091A00081608093A00068
:102E900080912101826080932101809121018160D4
:102EA0008093210180912001816080932001809195
:102EB0007A00846080937A0080917A0082608093A7
:102EC0007A0080917A00816080937A0080917A0004
:102ED000806880937A001092C10010920D051092C4
:102EE0000E0510920F05109210051092CB0410924F
:102EF000CC041092CD041092CE0468EB7BE080E00D
:102F000090E0A2DA8CE294E090930C0580930B059C
:102F1000ECDE0E94520B6093CB047093CC04809340
:102F2000CD049093CE0463E472E080910B05909100
:102F30000C050E94D1076AE070E080E090E084DA3E
:102F400081E08093DF0480917A00846080937A002E
:102F500080917A008D7F80937A0080917A008E7FB5
:102F600080937A001092C3031092C2031092CB0395
:102F70001092CA031092C9031092C8031092C4039E
:102F80001092C5031092C6031092C7031092D1038A
:102F90001092D0038DEC9CECACECBDE38093BE03AF
:102FA0009093BF03A093C003B093C1038091F10538
:102FB000803308F050C061E08AE208DA8091F105C0
:102FC000E82FF0E09F01220F331FE20FF31FE05ABA
:102FD000FA4F9081907C9A6290831092F205109241
:102FE000F3056CE09FD49CE0899FB001112440E080
:102FF00050E09A01260F371FF901EE0FFF1F2E0F29
:103000003F1FF901E05AFA4F908196FD17C04F5FBC
:103010005F4F4C30510569F7813009F097C110922C
:10302000800082E0809381001092850010928400DD
:10303000B19A80916F00826080936F00E091F105FA
:10304000F0E0CF01880F991FE80FF91FE05AFA4FFF
:103050008081806480838091F30508E512E0081B7D
:10306000110987FD1395000F111F000F111F80918B
:10307000F205C8E8D0E0C81BD10987FDD395CC0F75
:10308000DD1FCC0FDD1F6E010D2E000CEE08FF08BA
:10309000C801012E000CAA0BBB0B9C01AD012C1921
:1030A0003D094E095F09A6E4B0E023D424EB30E0EB
:1030B00040E050E002D4C20ED31EE41EF51E809103
:1030C000F1058033C8F4CC16DD062CF0E6010C15B2
:1030D0001D050CF4E8012297CC0FDD1F2FB7F894E3
:1030E00090E0FC01EE0FFF1F8E0F9F1FFC01E05AC6
:1030F000FA4FD283C1832FBFF8DD81E090E0A0E0DA
:10310000B0E08093AB039093AC03A093AD03B09376
:10311000AE038AE893E09093AA038093A903809179
:1031200070008E7F809370008091B0008C7F8093C0
:10313000B0008091B100877F8093B1008091B6008C
:103140008F7D8093B600809170008D7F809370009A
:103150008091B10084608093B1008091B1008C7F38
:103160008093B10081E091E89093B0038093AF0326
:103170001092B2031092B3031092B4031092B503ED
:103180001092B1038091AF039091B0038093B2008D
:103190008091700081608093700061E085E016D9B5
:1031A00060E086E013D980E1809381001092800076
:1031B00084E08093CF0382E19AE79093CE038093DB
:1031C000CD03909387008093860084E180938100F3
:1031D00061E08DE0FBD861E08CE0F8D861E08BE045
:1031E000F5D861E08AE0F2D860E08DE0C4D960E013
:1031F0008CE0C1D960E08BE0BED960E08AE0BBD949
:1032000061E084E0E3D861E087E0E0D861E088E055
:10321000DDD86FEF80E00E94D30B61E083E0D6D869
:1032200061E083E0A8D962E087E3D0D862E088E378
:10323000CDD862E089E3CAD8E3EDF1E0E491E09310
:10324000B903E9E1F2E0E491E093B603E4EDF1E0E3
:10325000E491E093BA03EAE1F2E0E491E093B7038A
:10326000E5EDF1E0E491E093BB03EBE1F2E0E49102
:10327000E093B8038CEC93E09093140580931305CE
:1032800081E08093CF0320E43FE13093CE0320938D
:10329000CD03309387002093860091E190938100C5
:1032A0002AEF3BE03093BD032093BC0380936F0073
:1032B00080935E0510922B04E9E1F4E011921192E3
:1032C00084E0EB32F807D1F78091CA039091CB03E9
:1032D00086DC65E572E08CE294E00E94D107809183
:1032E000C8039091C9037BDC65E872E08CE294E04E
:1032F0000E94D1078091CA039091CB0370DC20E03B
:1033000030E0A9016091C4037091C5038091C603A8
:103310009091C70397D187FF03C08CE992E002C068
:103320008AEC92E049DC20E030E0A9016091C4031E
:103330007091C5038091C6039091C70383D1811119
:1033400003C086EF92E038DC09D8BECF823061F44A
:10335000109290008093910010929500109294002A
:1033600088BB809371006ACE833069F41092A0000C
:1033700082E08093A1001092A5001092A40089BB66
:10338000809372005BCE811159CE1092200182E0B1
:103390008093210110922501109224018ABB809311
:1033A00073004CCE10922F0410922E0488EE93E0FE
:1033B000A0E0B0E08093300490933104A0933204F5
:1033C000B093330429E032E030932D0420932C0491
:1033D00025EC30E0309339042093380424EC30E0BD
:1033E00030933B0420933A0420EC30E030933D04CA
:1033F00020933C0421EC30E030933F0420933E04C2
:1034000022EC30E0309341042093400426EC30E07D
:1034100030934304209342041092450410924604D2
:1034200010924704109248041092CF041092D004D6
:103430001092D1041092D2041092D3041092D404AA
:103440001092D5041092D6041092D7041092D8048A
:103450001092D9041092DA041092DB041092DC046A
:103460001092DD041092DE041092120510921105E4
:10347000109215051092160510921D0510921E054A
:1034800010921F051092210510922005109222051E
:1034900010922305109224051092260510922505FE
:1034A000109228051092270510922A0510922905DE
:1034B00010922B0510922C0510922D0510922E05BE
:1034C00010922F051092300510923105109232059E
:1034D000109233051092340510923605109235057E
:1034E000109238051092370510923A05109239055E
:1034F00010923B0510923C0510923E0510923D053E
:103500001092400510923F0510924105109242051D
:1035100010924305109244051092450510924605FD
:1035200010924705109248051092490510924A05DD
:1035300028EB3BE030934C0520934B0547E3409349
:103540004D0530934F0520934E0510925005109273
:103550005205109251051092540510925305109285
:103560005505109256051092570510925805109265
:10357000590510925A0510925B0510925C05109245
:103580005D0541E040935E0540935F054BE152E0ED
:103590005093F5054093F4051092FB051092FA053F
:1035A0008093FC059093FD05A093FE05B093FF0565
:1035B00087E292E09093F9058093F8058091F005F9
:1035C000803390F491E0980F9093F0058093F1058B
:1035D00090E0FC01EE0FFF1F8E0F9F1FFC01E05AD1
:1035E000FA4F3283218303C08FEF8093F10510924D
:1035F0003506109257081092580884E68093770891
:1036000010927C0880E580937D0810927E081092CD
:10361000100610921106109207061092060688EE08
:1036200093E0A0E0B0E08093080690930906A09391
:103630000A06B0930B0687E392E090930506809309
:103640000406089540D008F481E00895E89409C084
:1036500097FB3EF490958095709561957F4F8F4FC5
:103660009F4F9923A9F0F92F96E9BB279395F695DB
:10367000879577956795B795F111F8CFFAF4BB0F59
:1036800011F460FF1BC06F5F7F4F8F4F9F4F16C0BD
:10369000882311F096E911C0772321F09EE8872F47
:1036A000762F05C0662371F096E8862F70E060E003
:1036B0002AF09A95660F771F881FDAF7880F96957C
:1036C000879597F90895990F0008550FAA0BE0E820
:1036D000FEEF16161706E807F907C0F012161306D4
:1036E000E407F50798F0621B730B840B950B39F414
:1036F0000A2661F0232B242B252B21F408950A267A
:1037000009F4A140A6958FEF811D811D08950BD06E
:1037100078C069D028F06ED018F0952309F05AC00F
:103720005FC01124A2C07ED0A0F3959FD1F3950F66
:1037300050E0551F629FF001729FBB27F00DB11D35
:10374000639FAA27F00DB11DAA1F649F6627B00DC5
:10375000A11D661F829F2227B00DA11D621F739FAE
:10376000B00DA11D621F839FA00D611D221F749FBC
:103770003327A00D611D231F849F600D211D822F03
:10378000762F6A2F11249F5750408AF0E1F088234A
:103790004AF0EE0FFF1FBB1F661F771F881F915057
:1037A0005040A9F79E3F510570F014C05EC05F3FC6
:1037B000ECF3983EDCF3869577956795B795F7958A
:1037C000E7959F5FC1F7FE2B880F911D9695879512
:1037D00097F9089597F99F6780E870E060E0089591
:1037E0009FEF80EC089500240A9416161706180619
:1037F0000906089500240A941216130614060506F5
:103800000895092E0394000C11F4882352F0BB0F85
:1038100040F4BF2B11F460FF04C06F5F7F4F8F4FE8
:103820009F4F089557FD9058440F551F59F05F3F23
:1038300071F04795880F97FB991F61F09F3F79F0D2
:1038400087950895121613061406551FF2CF469554
:10385000F1DF08C0161617061806991FF1CF8695D6
:103860007105610508940895E894BB2766277727BA
:10387000CB0197F90895A1E21A2EAA1BBB1BFD01EB
:103880000DC0AA1FBB1FEE1FFF1FA217B307E4073F
:10389000F50720F0A21BB30BE40BF50B661F771F97
:1038A000881F991F1A9469F7609570958095909577
:1038B0009B01AC01BD01CF010895052E97FB16F4C5
:1038C00000940FD057FD05D0D6DF07FC02D046F498
:1038D00008C050954095309521953F4F4F4F5F4F11
:1038E000089590958095709561957F4F8F4F9F4F6C
:1038F000089509D0A59F900DB49F900DA49F800DB1
:10390000911D11240895A29FB001B39FC001A39FF0
:10391000700D811D1124911DB29F700D811D112408
:10392000911D0895991B79E004C0991F961708F01E
:10393000961B881F7A95C9F780950895EE0FFF1F93
:10394000881F8BBF0790F691E02D199481E090E0DD
:10395000F89409C0FB01DC0102C001900D924150B6
:0A3960005040D8F70895F894FFCF07
:10396A00FFFFFFFF04000000004711C0101111EF14
:10397A001003118D11EB1000000000F70ACE0A485F
:10398A000A750A00000000D401A5019D0189017A87
:10399A0001790100000000C007BE070202E103F737
:1039AA00030305564D4450565F317C315F564D44F2
:1039BA0050560D0A00D098D0B7D0BCD0B5D0BDD0E3
:1039CA00B5D0BDD0B8D0B520D181D0BAD0BED180C3
:1039DA00D0BED181D182D0B820D0B2203120D0BC83
:1039EA00D1813A2000D0A2D0B5D0BAD183D189D022
:1039FA00B8D0B920D0B2D0B5D1813A00D09ED0B1DA
:103A0A00D18AD0B5D0BAD18220D0B4D0B2D0B8D071
:103A1A00B6D0B5D182D181D18F20D0BDD0B0D0BFA0
:103A2A00D180D0B0D0B2D0BE2100D09ED0B1D18A40
:103A3A00D0B5D0BAD18220D0B4D0B2D0B8D0B6D016
:103A4A00B5D182D181D18F20D0BDD0B0D0BBD0B575
:103A5A00D0B2D0BE2100D0A1D182D0B0D0B1D0B8DE
:103A6A00D0BBD0B8D0B7D0B0D186D0B8D18F20D003
:103A7A00B7D0B0D0B2D0B5D180D188D0B5D0BDD072
:0E3A8A00B02120466163746F72203D20300031
:00000001FF
